{
  "contractName": "UserDB",
  "abi": [
    {
      "constant": true,
      "inputs": [],
      "name": "nextId",
      "outputs": [
        {
          "internalType": "uint256",
          "name": "",
          "type": "uint256"
        }
      ],
      "payable": false,
      "stateMutability": "view",
      "type": "function"
    },
    {
      "constant": true,
      "inputs": [
        {
          "internalType": "uint256",
          "name": "",
          "type": "uint256"
        }
      ],
      "name": "users",
      "outputs": [
        {
          "internalType": "uint256",
          "name": "id",
          "type": "uint256"
        },
        {
          "internalType": "string",
          "name": "name",
          "type": "string"
        }
      ],
      "payable": false,
      "stateMutability": "view",
      "type": "function"
    },
    {
      "constant": false,
      "inputs": [
        {
          "internalType": "string",
          "name": "_name",
          "type": "string"
        }
      ],
      "name": "create",
      "outputs": [],
      "payable": false,
      "stateMutability": "nonpayable",
      "type": "function"
    },
    {
      "constant": true,
      "inputs": [
        {
          "internalType": "uint256",
          "name": "_id",
          "type": "uint256"
        }
      ],
      "name": "readUserInfo",
      "outputs": [
        {
          "internalType": "uint256",
          "name": "",
          "type": "uint256"
        },
        {
          "internalType": "string",
          "name": "",
          "type": "string"
        }
      ],
      "payable": false,
      "stateMutability": "view",
      "type": "function"
    },
    {
      "constant": false,
      "inputs": [
        {
          "internalType": "uint256",
          "name": "_id",
          "type": "uint256"
        },
        {
          "internalType": "string",
          "name": "_name",
          "type": "string"
        }
      ],
      "name": "update",
      "outputs": [],
      "payable": false,
      "stateMutability": "nonpayable",
      "type": "function"
    },
    {
      "constant": false,
      "inputs": [
        {
          "internalType": "uint256",
          "name": "_id",
          "type": "uint256"
        }
      ],
      "name": "deleteUser",
      "outputs": [],
      "payable": false,
      "stateMutability": "nonpayable",
      "type": "function"
    }
  ],
  "bytecode": "0x60806040526001805534801561001457600080fd5b506108c8806100246000396000f3fe608060405234801561001057600080fd5b50600436106100625760003560e01c8063365b98b21461006757806338f148451461011557806361b8ce8c14610143578063840b6ffe14610161578063b6a46b3b1461020f578063f745630f146102ca575b600080fd5b6100936004803603602081101561007d57600080fd5b810190808035906020019092919050505061038f565b6040518083815260200180602001828103825283818151815260200191508051906020019080838360005b838110156100d95780820151818401526020810190506100be565b50505050905090810190601f1680156101065780820380516001836020036101000a031916815260200191505b50935050505060405180910390f35b6101416004803603602081101561012b57600080fd5b8101908080359060200190929190505050610458565b005b61014b61049f565b6040518082815260200191505060405180910390f35b61018d6004803603602081101561017757600080fd5b81019080803590602001909291905050506104a5565b6040518083815260200180602001828103825283818151815260200191508051906020019080838360005b838110156101d35780820151818401526020810190506101b8565b50505050905090810190601f1680156102005780820380516001836020036101000a031916815260200191505b50935050505060405180910390f35b6102c86004803603602081101561022557600080fd5b810190808035906020019064010000000081111561024257600080fd5b82018360208201111561025457600080fd5b8035906020019184600183028401116401000000008311171561027657600080fd5b91908080601f016020809104026020016040519081016040528093929190818152602001838380828437600081840152601f19601f820116905080830192505050505050509192919290505050610599565b005b61038d600480360360408110156102e057600080fd5b81019080803590602001909291908035906020019064010000000081111561030757600080fd5b82018360208201111561031957600080fd5b8035906020019184600183028401116401000000008311171561033b57600080fd5b91908080601f016020809104026020016040519081016040528093929190818152602001838380828437600081840152601f19601f82011690508083019250505050505050919291929050505061061c565b005b6000818154811061039c57fe5b9060005260206000209060020201600091509050806000015490806001018054600181600116156101000203166002900480601f01602080910402602001604051908101604052809291908181526020018280546001816001161561010002031660029004801561044e5780601f106104235761010080835404028352916020019161044e565b820191906000526020600020905b81548152906001019060200180831161043157829003601f168201915b5050505050905082565b600061046382610661565b90506000818154811061047257fe5b90600052602060002090600202016000808201600090556001820160006104999190610726565b50505050565b60015481565b6000606060006104b484610661565b9050600081815481106104c357fe5b906000526020600020906002020160000154600082815481106104e257fe5b9060005260206000209060020201600101808054600181600116156101000203166002900480601f0160208091040260200160405190810160405280929190818152602001828054600181600116156101000203166002900480156105885780601f1061055d57610100808354040283529160200191610588565b820191906000526020600020905b81548152906001019060200180831161056b57829003601f168201915b505050505090509250925050915091565b600060405180604001604052806001548152602001838152509080600181540180825580915050906001820390600052602060002090600202016000909192909190915060008201518160000155602082015181600101908051906020019061060392919061076e565b5050505060016000815480929190600101919050555050565b600061062783610661565b9050816000828154811061063757fe5b9060005260206000209060020201600101908051906020019061065b9291906107ee565b50505050565b600080600090505b6000805490508110156106b257826000828154811061068457fe5b90600052602060002090600202016000015414156106a55780915050610721565b8080600101915050610669565b506040517f08c379a00000000000000000000000000000000000000000000000000000000081526004018080602001828103825260148152602001807f5573657220646f6573206e6f742065786973742100000000000000000000000081525060200191505060405180910390fd5b919050565b50805460018160011615610100020316600290046000825580601f1061074c575061076b565b601f01602090049060005260206000209081019061076a919061086e565b5b50565b828054600181600116156101000203166002900490600052602060002090601f016020900481019282601f106107af57805160ff19168380011785556107dd565b828001600101855582156107dd579182015b828111156107dc5782518255916020019190600101906107c1565b5b5090506107ea919061086e565b5090565b828054600181600116156101000203166002900490600052602060002090601f016020900481019282601f1061082f57805160ff191683800117855561085d565b8280016001018555821561085d579182015b8281111561085c578251825591602001919060010190610841565b5b50905061086a919061086e565b5090565b61089091905b8082111561088c576000816000905550600101610874565b5090565b9056fea265627a7a72315820e2e122cfbd8c79f16d09679cf3326e083c5aaee62c260a3975672c6148d5d51264736f6c63430005100032",
  "source": "pragma solidity >=0.4.17 <0.7.0;\r\n\r\ncontract UserDB {\r\n    struct User {\r\n        uint id;\r\n        string name;\r\n    }\r\n    \r\n    User[] public users;\r\n    \r\n    uint public nextId = 1;\r\n    \r\n    function create(string memory _name) public {\r\n        users.push(User(nextId, _name));\r\n        nextId++;\r\n    }\r\n    \r\n    function readUserInfo(uint _id) view public returns(uint, string memory){\r\n        uint i = find(_id);\r\n        return (users[i].id, users[i].name);\r\n    }\r\n    \r\n    function update(uint _id, string memory _name) public {\r\n        uint i = find(_id);\r\n        users[i].name = _name;\r\n    }\r\n    \r\n    function deleteUser(uint _id) public {\r\n        uint i = find(_id);\r\n        delete users[i];\r\n    }\r\n    \r\n    function find(uint _id) view internal returns(uint) {\r\n        for(uint i = 0; i < users.length; i++) {\r\n            if(users[i].id == _id) {\r\n               return i;\r\n            }\r\n        }\r\n         revert('User does not exist!');\r\n    }\r\n}",
  "sourcePath": "D:\\Sammy\\Projects\\30 Days Solidity Challenge\\User DB Dapp\\contracts\\UserDB.sol",
  "compiler": {
    "name": "solc",
    "version": "0.5.16+commit.9c3226ce.Emscripten.clang"
  },
  "schemaVersion": "3.2.0",
  "updatedAt": "2020-08-25T09:41:59.179Z",
  "devdoc": {
    "methods": {}
  },
  "userdoc": {
    "methods": {}
  }
}